{
    "address": "0x6B136317cF501Be68BD39C4435bDebAc650b2d22",
    "abi": [
        {
            "inputs": [
                {
                    "internalType": "address",
                    "name": "priceFeedAddress",
                    "type": "address"
                }
            ],
            "stateMutability": "nonpayable",
            "type": "constructor"
        },
        {
            "inputs": [],
            "name": "FundMe__NotOwner",
            "type": "error"
        },
        {
            "stateMutability": "payable",
            "type": "fallback"
        },
        {
            "inputs": [],
            "name": "MINIMUM_USD",
            "outputs": [
                {
                    "internalType": "uint256",
                    "name": "",
                    "type": "uint256"
                }
            ],
            "stateMutability": "view",
            "type": "function"
        },
        {
            "inputs": [],
            "name": "fund",
            "outputs": [],
            "stateMutability": "payable",
            "type": "function"
        },
        {
            "inputs": [
                {
                    "internalType": "address",
                    "name": "funder",
                    "type": "address"
                }
            ],
            "name": "getAddressToAmountFunded",
            "outputs": [
                {
                    "internalType": "uint256",
                    "name": "",
                    "type": "uint256"
                }
            ],
            "stateMutability": "view",
            "type": "function"
        },
        {
            "inputs": [
                {
                    "internalType": "uint256",
                    "name": "index",
                    "type": "uint256"
                }
            ],
            "name": "getFunder",
            "outputs": [
                {
                    "internalType": "address",
                    "name": "",
                    "type": "address"
                }
            ],
            "stateMutability": "view",
            "type": "function"
        },
        {
            "inputs": [],
            "name": "getOwner",
            "outputs": [
                {
                    "internalType": "address",
                    "name": "",
                    "type": "address"
                }
            ],
            "stateMutability": "view",
            "type": "function"
        },
        {
            "inputs": [],
            "name": "getPriceFeed",
            "outputs": [
                {
                    "internalType": "contract AggregatorV3Interface",
                    "name": "",
                    "type": "address"
                }
            ],
            "stateMutability": "view",
            "type": "function"
        },
        {
            "inputs": [],
            "name": "withdraw",
            "outputs": [],
            "stateMutability": "payable",
            "type": "function"
        },
        {
            "stateMutability": "payable",
            "type": "receive"
        }
    ],
    "transactionHash": "0x9a43297aac1fba8b60ac974f771b0f53e1c2f56da9d90ff19ad35857a31e1b12",
    "args": [
        "0x8A753747A1Fa494EC906cE90E9f37563A8AF630e"
    ],
    "numDeployments": 3,
    "solcInputHash": "501747d7731cc4ea7b61a29f857c3e02",
    "bytecode": "0x60a060405234801561001057600080fd5b50604051620010023803806200100283398181016040528101906100349190610115565b3373ffffffffffffffffffffffffffffffffffffffff1660808173ffffffffffffffffffffffffffffffffffffffff1660601b8152505080600260006101000a81548173ffffffffffffffffffffffffffffffffffffffff021916908373ffffffffffffffffffffffffffffffffffffffff16021790555050610142565b600080fd5b600073ffffffffffffffffffffffffffffffffffffffff82169050919050565b60006100e2826100b7565b9050919050565b6100f2816100d7565b81146100fd57600080fd5b50565b60008151905061010f816100e9565b92915050565b60006020828403121561012b5761012a6100b2565b5b600061013984828501610100565b91505092915050565b60805160601c610e936200016f6000396000818161031f0152818161051501526105bb0152610e936000f3fe6080604052600436106100745760003560e01c8063893d20e81161004e578063893d20e8146100ff5780639e87a5cd1461012a578063b60d428814610155578063d7b4750c1461015f57610083565b80630343fb251461008d5780633ccfd60b146100ca5780636b69a592146100d457610083565b366100835761008161019c565b005b61008b61019c565b005b34801561009957600080fd5b506100b460048036038101906100af9190610837565b6102d5565b6040516100c1919061087d565b60405180910390f35b6100d261031d565b005b3480156100e057600080fd5b506100e96105ab565b6040516100f6919061087d565b60405180910390f35b34801561010b57600080fd5b506101146105b7565b60405161012191906108a7565b60405180910390f35b34801561013657600080fd5b5061013f6105df565b60405161014c9190610921565b60405180910390f35b61015d61019c565b005b34801561016b57600080fd5b5061018660048036038101906101819190610968565b610609565b60405161019391906108a7565b60405180910390f35b670de0b6b3a76400006101da600260009054906101000a900473ffffffffffffffffffffffffffffffffffffffff163461065190919063ffffffff16565b101561021b576040517f08c379a0000000000000000000000000000000000000000000000000000000008152600401610212906109f2565b60405180910390fd5b346000803373ffffffffffffffffffffffffffffffffffffffff1673ffffffffffffffffffffffffffffffffffffffff16815260200190815260200160002060008282546102699190610a41565b925050819055506001339080600181540180825580915050600190039060005260206000200160009091909190916101000a81548173ffffffffffffffffffffffffffffffffffffffff021916908373ffffffffffffffffffffffffffffffffffffffff160217905550565b60008060008373ffffffffffffffffffffffffffffffffffffffff1673ffffffffffffffffffffffffffffffffffffffff168152602001908152602001600020549050919050565b7f000000000000000000000000000000000000000000000000000000000000000073ffffffffffffffffffffffffffffffffffffffff163373ffffffffffffffffffffffffffffffffffffffff16146103a2576040517f579610db00000000000000000000000000000000000000000000000000000000815260040160405180910390fd5b6000600180548060200260200160405190810160405280929190818152602001828054801561042657602002820191906000526020600020905b8160009054906101000a900473ffffffffffffffffffffffffffffffffffffffff1673ffffffffffffffffffffffffffffffffffffffff16815260200190600101908083116103dc575b5050505050905060005b81518110156104b057600082828151811061044e5761044d610a97565b5b6020026020010151905060008060008373ffffffffffffffffffffffffffffffffffffffff1673ffffffffffffffffffffffffffffffffffffffff168152602001908152602001600020819055505080806104a890610ac6565b915050610430565b50600067ffffffffffffffff8111156104cc576104cb610b0f565b5b6040519080825280602002602001820160405280156104fa5781602001602082028036833780820191505090505b506001908051906020019061051092919061072d565b5060007f000000000000000000000000000000000000000000000000000000000000000073ffffffffffffffffffffffffffffffffffffffff164760405161055790610b6f565b60006040518083038185875af1925050503d8060008114610594576040519150601f19603f3d011682016040523d82523d6000602084013e610599565b606091505b50509050806105a757600080fd5b5050565b670de0b6b3a764000081565b60007f0000000000000000000000000000000000000000000000000000000000000000905090565b6000600260009054906101000a900473ffffffffffffffffffffffffffffffffffffffff16905090565b60006001828154811061061f5761061e610a97565b5b9060005260206000200160009054906101000a900473ffffffffffffffffffffffffffffffffffffffff169050919050565b60008061065d8361068d565b90506000670de0b6b3a764000085836106769190610b84565b6106809190610c0d565b9050809250505092915050565b6000808273ffffffffffffffffffffffffffffffffffffffff1663feaf968c6040518163ffffffff1660e01b815260040160a06040518083038186803b1580156106d657600080fd5b505afa1580156106ea573d6000803e3d6000fd5b505050506040513d601f19601f8201168201806040525081019061070e9190610ccb565b5050509150506402540be400816107259190610d46565b915050919050565b8280548282559060005260206000209081019282156107a6579160200282015b828111156107a55782518260006101000a81548173ffffffffffffffffffffffffffffffffffffffff021916908373ffffffffffffffffffffffffffffffffffffffff1602179055509160200191906001019061074d565b5b5090506107b391906107b7565b5090565b5b808211156107d05760008160009055506001016107b8565b5090565b600080fd5b600073ffffffffffffffffffffffffffffffffffffffff82169050919050565b6000610804826107d9565b9050919050565b610814816107f9565b811461081f57600080fd5b50565b6000813590506108318161080b565b92915050565b60006020828403121561084d5761084c6107d4565b5b600061085b84828501610822565b91505092915050565b6000819050919050565b61087781610864565b82525050565b6000602082019050610892600083018461086e565b92915050565b6108a1816107f9565b82525050565b60006020820190506108bc6000830184610898565b92915050565b6000819050919050565b60006108e76108e26108dd846107d9565b6108c2565b6107d9565b9050919050565b60006108f9826108cc565b9050919050565b600061090b826108ee565b9050919050565b61091b81610900565b82525050565b60006020820190506109366000830184610912565b92915050565b61094581610864565b811461095057600080fd5b50565b6000813590506109628161093c565b92915050565b60006020828403121561097e5761097d6107d4565b5b600061098c84828501610953565b91505092915050565b600082825260208201905092915050565b7f596f75206e65656420746f207370656e64206d6f726520455448210000000000600082015250565b60006109dc601b83610995565b91506109e7826109a6565b602082019050919050565b60006020820190508181036000830152610a0b816109cf565b9050919050565b7f4e487b7100000000000000000000000000000000000000000000000000000000600052601160045260246000fd5b6000610a4c82610864565b9150610a5783610864565b9250827fffffffffffffffffffffffffffffffffffffffffffffffffffffffffffffffff03821115610a8c57610a8b610a12565b5b828201905092915050565b7f4e487b7100000000000000000000000000000000000000000000000000000000600052603260045260246000fd5b6000610ad182610864565b91507fffffffffffffffffffffffffffffffffffffffffffffffffffffffffffffffff821415610b0457610b03610a12565b5b600182019050919050565b7f4e487b7100000000000000000000000000000000000000000000000000000000600052604160045260246000fd5b600081905092915050565b50565b6000610b59600083610b3e565b9150610b6482610b49565b600082019050919050565b6000610b7a82610b4c565b9150819050919050565b6000610b8f82610864565b9150610b9a83610864565b9250817fffffffffffffffffffffffffffffffffffffffffffffffffffffffffffffffff0483118215151615610bd357610bd2610a12565b5b828202905092915050565b7f4e487b7100000000000000000000000000000000000000000000000000000000600052601260045260246000fd5b6000610c1882610864565b9150610c2383610864565b925082610c3357610c32610bde565b5b828204905092915050565b600069ffffffffffffffffffff82169050919050565b610c5d81610c3e565b8114610c6857600080fd5b50565b600081519050610c7a81610c54565b92915050565b6000819050919050565b610c9381610c80565b8114610c9e57600080fd5b50565b600081519050610cb081610c8a565b92915050565b600081519050610cc58161093c565b92915050565b600080600080600060a08688031215610ce757610ce66107d4565b5b6000610cf588828901610c6b565b9550506020610d0688828901610ca1565b9450506040610d1788828901610cb6565b9350506060610d2888828901610cb6565b9250506080610d3988828901610c6b565b9150509295509295909350565b6000610d5182610c80565b9150610d5c83610c80565b9250827f7fffffffffffffffffffffffffffffffffffffffffffffffffffffffffffffff0482116000841360008413161615610d9b57610d9a610a12565b5b817f80000000000000000000000000000000000000000000000000000000000000000583126000841260008413161615610dd857610dd7610a12565b5b827f80000000000000000000000000000000000000000000000000000000000000000582126000841360008412161615610e1557610e14610a12565b5b827f7fffffffffffffffffffffffffffffffffffffffffffffffffffffffffffffff0582126000841260008412161615610e5257610e51610a12565b5b82820290509291505056fea2646970667358221220822d324b18b85a8cf63c7e6a585c1b3dbdb954804aecb0df2487f732afc3251e64736f6c63430008080033",
    "devdoc": {
        "author": "smolbirdy",
        "details": "This implements price feeds as our library",
        "kind": "dev",
        "methods": {
            "fund()": {
                "details": "This implements price feeds as our library"
            }
        },
        "title": "A contract for crowd funding",
        "version": 1
    },
    "userdoc": {
        "kind": "user",
        "methods": {
            "fund()": {
                "notice": "This function funds this contract"
            }
        },
        "notice": "This contract is to demo a sample funding contract",
        "version": 1
    },
    "storageLayout": {
        "storage": [
            {
                "astId": 59,
                "contract": "contracts/FundMe.sol:FundMe",
                "label": "s_addressToAmountFunded",
                "offset": 0,
                "slot": "0",
                "type": "t_mapping(t_address,t_uint256)"
            },
            {
                "astId": 62,
                "contract": "contracts/FundMe.sol:FundMe",
                "label": "s_funders",
                "offset": 0,
                "slot": "1",
                "type": "t_array(t_address)dyn_storage"
            },
            {
                "astId": 74,
                "contract": "contracts/FundMe.sol:FundMe",
                "label": "s_priceFeed",
                "offset": 0,
                "slot": "2",
                "type": "t_contract(AggregatorV3Interface)45"
            }
        ],
        "types": {
            "t_address": {
                "encoding": "inplace",
                "label": "address",
                "numberOfBytes": "20"
            },
            "t_array(t_address)dyn_storage": {
                "base": "t_address",
                "encoding": "dynamic_array",
                "label": "address[]",
                "numberOfBytes": "32"
            },
            "t_contract(AggregatorV3Interface)45": {
                "encoding": "inplace",
                "label": "contract AggregatorV3Interface",
                "numberOfBytes": "20"
            },
            "t_mapping(t_address,t_uint256)": {
                "encoding": "mapping",
                "key": "t_address",
                "label": "mapping(address => uint256)",
                "numberOfBytes": "32",
                "value": "t_uint256"
            },
            "t_uint256": {
                "encoding": "inplace",
                "label": "uint256",
                "numberOfBytes": "32"
            }
        }
    }
}